:020000040800F2
:10000000000C0220E102000845A100084D2700086D
:10001000ED0200086106000865A900080000000064
:10002000000000000000000000000000EDA2000839
:10003000630600080000000009A2000891A3000860
:10004000FB020008FB020008FB020008FB0200089C
:10005000FB020008FB020008FB020008FB0200088C
:10006000FB020008FB020008FB020008FB0200087C
:10007000FB020008FB020008FB020008FB0200086C
:10008000FB020008FB020008FB020008FB0200085C
:10009000FB020008FB020008FB020008FB0200084C
:1000A000FB020008F9A30008FB020008EDA300080A
:1000B000FB020008FB020008FB020008FB0200082C
:1000C000FB020008FB020008FB020008FB0200081C
:1000D000FB020008EDA80008FB020008FB02000874
:1000E000FB020008FB020008FB020008FB020008FC
:1000F000FB020008FB020008FB020008FB020008EC
:10010000FB020008FB020008FB020008FB020008DB
:10011000FB020008FB020008FB020008FB020008CB
:10012000FB020008FB020008FB020008FB020008BB
:10013000FB020008FB020008FB020008FB020008AB
:10014000FB020008FB020008FB020008FB0200089B
:10015000FB020008FB020008FB020008FB0200088B
:10016000FB020008FB020008FB020008FB0200087B
:10017000FB020008FB020008FB0200080000000070
:10018000FB020008FB020008FB020008FB0200085B
:10019000FB020008FB020008FB020008FB0200084B
:1001A000FB020008FB020008FB020008FB0200083B
:1001B000FB020008FB020008FB020008FB0200082B
:1001C000FB020008FB02000800000000FB02000820
:1001D000FB020008FB020008FB020008FB0200080B
:1001E000FB020008FB020008FB020008FB020008FB
:1001F000FB020008FB02000800F002F800F046F8DD
:100200000AA090E8000C82448344AAF10107DA4571
:1002100001D100F03BF8AFF2090EBAE80F0013F07D
:10022000010F18BFFB1A43F00103184700F5000047
:1002300020F50000103A24BF78C878C1FAD85207D8
:1002400024BF30C830C144BF04680C607047000050
:100250000023002400250026103A28BF78C1FBD8CF
:10026000520728BF30C148BF0B607047642900F0B7
:10027000AD80782900F0E680002070471FB50AF0B5
:100280008FFE00F020F91FBD10B510BD00F0B6F9CB
:100290001146FFF7F3FF0AF0DDFB00F0D4F903B4D9
:1002A000FFF7F2FF03BC0AF05EFB00000B49D1F838
:1002B00000C04A685CF8043B1068184442F8040B1C
:1002C0008C4528BFA1F1DC0C8A4228BFA1F1DC02D9
:1002D000C1F800C04A6020F0004070479405022039
:1002E0000948804709480047FEE7FEE7FEE7FEE7CA
:1002F000FEE7FEE7FEE7FEE7FEE7FEE70448054906
:10030000054A064B7047000095A30008F901000854
:1003100000060220000C0220000802200008022033
:10032000704700000FB4044910B503AA029800F00A
:100330004FF910BC5DF814FB340002200FB41CB55B
:10034000074B06AA7B4469460090059800F027F900
:100350000020694600F036F91CBC5DF814FB000073
:100360007D0200002DE9F0410E4604460020206287
:100370002046E168884730B3252805D0D4E901211B
:100380009047206A401CF2E7E16820460027884732
:10039000050018D0A5F14100192802D820354FF4E6
:1003A00000673246294620462760FFF75FFF40B1CD
:1003B000012804D0F61D26F007060836D8E7361DBA
:1003C000D6E72846DAE7206ABDE8F0812DE9F0415A
:1003D0000646002410687529314616A510D0AFF3E3
:1003E0000080002802DA404213A507E031688A073E
:1003F00001D512A502E0490704D511A5012401E0A9
:10040000AFF3008000210A2206F1240709E0B0FBC7
:10041000F2FCB0FBF2F302FB1C00303078541846BB
:10042000491C0028F3D123462A463046BDE8F04156
:1004300000F056B8000000002D0000002B00000066
:100440002000000070B504460D4621461068AFF349
:1004500000802188090502D50F4A7A4402E00E4A3D
:100460007A440E32002104F1240305E000F00F0667
:100470000009965D5E54491C0028F7D120780023BE
:10048000000704D5702D02D009B102231132204695
:10049000BDE8704000F024B8A4F200000B4910B58C
:1004A000A1F17C020A4CC2E93712372106E000EBC9
:1004B000104342F82130074B00FB03400B1EA1F113
:1004C0000101F4DC10BD0120E8E700003405022042
:1004D000E119D666CD0D010070477047704770472F
:1004E0002DE9F0470D4699469246044600F124084E
:1004F0000168880604D5E06921F01001216000E060
:100500000120A84201DD471B00E00027A1697A19FC
:1005100002EB0900081AA0612078C00602D4204628
:10052000AFF30080002608E0D4E901211AF80600A4
:100530009047206A401C761C20624E45F4DB2078F0
:10054000C0060AD52046AFF3008006E0D4E90121B9
:1005500030209047206A401C2062381EA7F1010716
:10056000F4DC07E0D4E9012118F805009047206A7F
:10057000401C2062281EA5F10105F3DC2046AFF3E4
:1005800000802078000602D50220BDE8F087012017
:10059000FBE7000001694A1C02610878704700B55A
:1005A0008FB0CDE901310021059105497944CDE9AC
:1005B000031011466846FFF7D5FE0FB000BD0000DE
:1005C000E5FFFFFF0A6802F8010B0A6070470000B0
:1005D000074B70B50D467B44FFF7E1FF0446284604
:1005E00000F008F810B14FF0FF3070BD204670BD2C
:1005F00023A40000007B00F080007047754600F0E7
:100600002BF8AE4605006946534620F007008546A4
:1006100018B020B5FFF772FEBDE820404FF000068D
:100620004FF000074FF000084FF0000B21F00701DA
:10063000AC46ACE8C009ACE8C009ACE8C009ACE81D
:10064000C0098D46704710B50446AFF300802046C0
:10065000BDE81040FFF723BE004870479C0502200C
:10066000FEE77047B3F5804F30B418BF6FF07041AC
:1006700004D040F8221030BC0020704750F82230DF
:10068000DFF824C08D8903EA0C03D1E900C44CEAE9
:10069000041C8C688969240244EA05444CEA040C71
:1006A0004CEA01011943E4E70000F0CF70B4D1F83F
:1006B00000C050F82C201B4BD1E903561A40D1E959
:1006C000014335431C432C434D692C438D692C4316
:1006D000CD692C430D6A2C434D6A2C438D6A2C4303
:1006E000CD6A2C430D6B2C438D6B2C434D6B2C43EF
:1006F0002243082B08BF42F0400240F82C200A6B2E
:10070000B2F5801F05D10A684AB1026842F480122E
:1007100002600A681AB10268496B1143016070BC3B
:10072000002070478004C0FF00EB820270B4536861
:100730004FF07E46D1E900C48D8903F040434CEA76
:10074000041C8C68240244EA05440D8A4CEA040423
:10075000DFF834C00CEB05552C430D7D06EB056529
:100760002C438D692C4323435360026812F4801F8D
:1007700007D04268098A22F470020CEB0151114340
:10078000416070BC002070470000F0FF4DF8044D40
:10079000D1E901320C681343D1E903C24CEA0202E9
:1007A0001A434B6913438A69012C046843EA020C1B
:1007B000CB690A6A496A08D04CEA03031A43114319
:1007C0006FF30E04214301600BE024F4F8441A4354
:1007D00021430A43416802606FF30E014CEA0101B4
:1007E00041605DF8044B00207047426942EA4101D4
:1007F000416100207047F8B514460546D1E9000272
:100800006FF01F0310438A68C96803EB421242EA83
:10081000412108430090286100F0E2F90646A869EA
:1008200010F0200F0ED0B4F1FF3F07D024B100F03C
:10083000D7F9801BA04201D90320F8BDA86910F0A8
:10084000200FF0D10020F8BD2DE9F001D1F804C04F
:100850006FF00F050B682C015B1E05EB0C1C43EAC7
:100860000C03D1F808C04FEA0428270304EB0C2C32
:1008700043EA0C050B8A2604CC68012A826808EB3F
:10088000034C8B8A097E07EB035306EB01610DD005
:10089000361306EB04342C4344EA0C0C4CEA0303F5
:1008A000194302F070421143816012E0240322F4E4
:1008B0007042A4F58054234322F470021A43C368A3
:1008C00045EA0C0C826003F070434CEA01011943C5
:1008D000C160BDE8F001002070472DE9F04F4FF0F6
:1008E000000C4FF001094FF0030ADDE9098709FA0E
:1008F0000CF501EA0504AC4236D1D0F800B04FEA5D
:100900004C040AFA04F62BEA060BC0F800B0D0F843
:1009100000B002FA04FE4BEA0E0BC0F800B0012A48
:1009200018BF022A18D1D0F808B02BEA060BC0F87D
:1009300008B0D0F808B008FA04FE4BEA0E0BC0F875
:1009400008B0D0F804B02BEA05054560456803FA05
:100950000CFB45EA0B054560C568B543C560C56835
:1009600007FA04F42C43C4600CF1010CBCF1100F25
:10097000BDD3BDE8F08F90F83510022903D0802157
:10098000416501207047052180F835100068016835
:1009900021F0010101600020704700002DE9F84FAF
:1009A000DFF81C920022DFF814820F2709F1040AF5
:1009B0004FF0010E0B680EFA02F52B40AB4240F0EF
:1009C000F780D1F804C0BCF1020F18BFBCF1120FC0
:1009D00012D14FEAD20C00EB8C0CDCF820605407EB
:1009E000E40E07FA04FB26EA0B06D1F810B00BFA66
:1009F00004F43443CCF8204006684FEA420C91F8E6
:100A000004B003240BF0030B04FA0CF4A6430BFA16
:100A10000CFB4BEA060606604E68012E18BF022E3C
:100A200003D0112E18BF122E11D18668D1F80CB048
:100A3000A6430BFA0CFB4BEA06068660466826EADC
:100A400005050E79C6F30016964035434560C56826
:100A500025EA04048D6805FA0CFC4CEA040CC0F885
:100A60000CC0D1F804C01CF0805F7CD0D8F800C066
:100A70004CF4804CC8F800C0D8F800C00CF4804C8E
:100A8000CDF800C022F0030C0CF1804505F5983537
:100A9000D5F808C89407240F07FA04F62CEA0606CE
:100AA000A0F1804CBCF5003C48D0A0F1804CBCF5D6
:100AB000013C08BF4FF0010C40D0A0F1804CBCF5C8
:100AC000023C08BF4FF0020C38D0A0F1804CBCF5BE
:100AD000033C08BF4FF0030C30D0A0F1804CBCF5B4
:100AE000043C08BF4FF0040C28D0A0F1804CBCF5AA
:100AF000053C08BF4FF0050C20D0A0F1804CBCF5A0
:100B0000063C08BF4FF0060C18D0A0F1804CBCF595
:100B1000073C08BF4FF0070C10D0A0F1804CBCF58B
:100B2000083C08BF4FF0080C08D0A0F1804CBCF581
:100B3000093C0CBF4FF0090C4FF00A0C0CFA04FCF6
:100B40004CEA060CC5F808C8D9F800C04C682CEA75
:100B5000030C14F4803F18BF4CEA030CC9F800C022
:100B6000DAF800C000E023E04C682CEA030C14F42F
:100B7000003F18BF4CEA030CCAF800C0114CD4F86F
:100B800000C04D682CEA030C15F4801F18BF4CEA16
:100B9000030CC4F800C00C4CD4F800C04D682CEA1B
:100BA000030C15F4001F18BF4CEA030CC4F800C076
:100BB000521C102AFFF4FEAEBDE8F88F4438024004
:100BC000003C0140083C01400C3C014000690840E9
:100BD00018BF01207047002A08BF090481617047CF
:100BE00001480068704700002800022002480168A0
:100BF000491C0160704700002800022010B504461F
:100C000007484FF47A720068B0FBF2F001F02EFA58
:100C100000222146501E00F0BDF9002010BD00004A
:100C2000240002202DE9F05F044690F8A00001287E
:100C300004BF0220BDE8F09F0125022084F8A050E7
:100C400084F8A10002EB820000EBC20004EB8003F9
:100C5000B1E8C11F3833A3E8C11F91E8C1112039A1
:100C600083E8C111204609F08BF92068456284F8B9
:100C7000A150002084F8A000BDE8F09F002804BF28
:100C80000120704770B5044690F8A100002520B9F6
:100C9000204684F8A05000F077F8022084F8A100E4
:100CA0002068816921F070418161D4E90101084324
:100CB000D4E9031211430143206882691143816121
:100CC000206882682F490A408260A08A0204206856
:100CD0008368D4F818C043EA0C031A438260206882
:100CE000C2680A40C260A08B02042068C368D4F8BE
:100CF00020C043EA0C031A43C260206802690A401C
:100D00000261A08C020420680369D4F828C043EA79
:100D10000C031A4302612068426911404161A08DB1
:100D2000010420684269236B1A431143416194F81E
:100D30003500020294F8360001042068C36A03F00B
:100D40007F43C3622068C36A114394F834C043EA06
:100D50000C031943C1622068416B41F004014163F7
:100D60002068416B41F0020141632068816941F0D4
:100D700001018161C4F8A450012084F8A100002081
:100D800070BD000000F800F0354810B586B001686D
:100D900041F080610160006800F08060059031489A
:100DA000016841F400010160016801F4000105914E
:100DB000016841F002010160016801F00201059142
:100DC000016841F020010160016801F020010591F6
:100DD000016841F040010160016801F040010591A6
:100DE000016841F080010160016801F08001059116
:100DF000016841F48071016000680324694600F4D1
:100E0000807005902020009001200190CDE902041F
:100E10001548FFF7C3FD4FF4806000900220019059
:100E200000206946CDE902040E2004900F48FFF728
:100E3000B5FD4FF40C6000900D486946FFF7AEFD1C
:100E40004FF47E4000900B486946FFF7A7FD40F243
:100E5000F760009008486946FFF7A0FD06B010BD96
:100E6000443802403038024000040240001402407E
:100E700000180240001C02400020024070B50446E9
:100E800090F8A0008C46012804BF022070BD012507
:100E9000022084F8A05084F8A10003EB830000EB4B
:100EA000C30004EB800000F13801C0F838C0006EC8
:100EB0006044C1E90102C86A10441A46C86020466D
:100EC00009F05EF82068456284F8A150002084F89B
:100ED000A00070BD70B5044690F8A0008C460128B3
:100EE00004BF022070BD0125022084F8A05084F8C0
:100EF000A10003EB830000EBC300002604EB80009D
:100F000000F138012046C1E9006CC1E90262C1E983
:100F10000AC21A4609F034F82068456284F8A150E4
:100F2000002084F8A06070BD134A41781160111D43
:100F300003780A1D002B04BF002008601AD0436804
:100F40000B60017BC37A090741EA0361837A41EAB6
:100F5000C341437B41EA8341837B41EA4341C37BF5
:100F600041EA0341437A41EA0321037A007841EAE6
:100F7000430108431060704798ED00E0012200F043
:100F80001F0102FA01F14009800000F1E020C0F8E1
:100F900000117047174B4DF8044D1B68C3F3022333
:100FA000C3F1070CBCF1040F88BF4FF0040C1C1DEB
:100FB000072C34BF0023DB1E012404FA0CFCACF127
:100FC000010C0CEA0101994004FA03F35B1E1A407C
:100FD000114300284FEA0111B8BF00F00F0000F1E3
:100FE000E020B4BF80F8141D80F800145DF8044BB5
:100FF000704700000CED00E01C4838B5016841F076
:101000008051016000681A4C00F080500090206808
:1010100040F480302060FFF7E3FD0546606810F47F
:10102000803F09D1FFF7DCFD401BB0F57A7F14D873
:10103000606810F4803FF5D0206840F400302060F4
:10104000FFF7CEFD0546606810F4003F0BD1FFF7B7
:10105000C7FD401BB0F57A7F01D9032038BD606819
:1010600010F4003FF3D0002038BD000040380240AB
:10107000007000402DE9F84F04460078DFF82C940A
:101080004FF0000B10F0010F5D4610D0D9F80000B2
:1010900020F40000C9F80000D9F80000616B084393
:1010A000C9F80000606B002808BF4FF0010B2068F2
:1010B000FF4E10F4002F0FD03068E16B20F4401089
:1010C00008433060E06BB0F5801F08BF4FF0010BA4
:1010D00002D0002808BF0125206810F4801F0FD01F
:1010E0003068216C20F4400008433060206CB0F57B
:1010F000800F08BF4FF0010B02D0002808BF012568
:10110000206810F0807F18BF4FF0010B10F0200F07
:1011100071D0E848016841F0805101600068DFF853
:10112000988300F080500090D8F8000040F4807060
:10113000C8F80000FFF754FD0746D8F8000010F487
:10114000807F0AD1FFF74CFDC01B642800F230837A
:10115000D8F8000010F4807FF4D0DFF86083D8F86E
:10116000000010F4407031D0218E01F440718142B2
:101170002CD0D8F80000D8F8001020F4407041F4CA
:101180008031C8F80010D8F8001021F48031C8F878
:101190000010C8F80000D8F8000010F0010F15D0BA
:1011A000FFF71EFD0746D8F8000010F0020F08BF39
:1011B00041F2883A0AD1FFF713FDC01B504500F2F7
:1011C000F782D8F8000010F0020FF4D0206B4FF433
:1011D000407181431CBFD9F8000020F4F81000F0E2
:1011E000EE80C9F80000D8F80000218EC1F30B0191
:1011F0000843C8F80000207810F0100F07D03068BE
:1012000020F0807030603068A16B08433060208827
:1012100010F4804FAA4805D00168626E21F4403175
:1012200011430160218811F4004F05D00168A26EBE
:1012300021F4402111430160216811F4803F05D061
:101240000168E26E21F4401111430160216811F43C
:10125000003F05D00168226F21F440011143016075
:10126000217811F0400F05D00168626C21F0030174
:1012700011430160217811F0800F05D00168A26C44
:1012800021F00C0111430160218811F4807F05D009
:101290000168E26C21F0300111430160218811F4F2
:1012A000007F05D00168226D21F0C001114301606B
:1012B000218811F4806F05D00168626D21F44071BE
:1012C00011430160218811F4006F05D00168A26DFF
:1012D00021F4406111430160218811F4805F05D041
:1012E0000168E26D21F4405111430160218811F43D
:1012F000005F05D00168226E21F440411143016076
:10130000216811F4800F05D00168A26F21F080617F
:1013100011430160216811F4001F0AD00168E26FD7
:1013200021F0006111430160E16FB1F1006F08BF6E
:101330000125216811F0080F18BF012511F4802F35
:1013400005D00168626F21F040711143016021688E
:1013500011F4000F06D00168D4F8802021F08051EC
:1013600011430160216811F0806F06D00168D4F844
:10137000842021F0005111430160206810F0006FBB
:1013800006D03068D4F8881020F000700843306030
:10139000206810F0805F06D03068D4F88C1020F000
:1013A000806008433060BBF1000F47F6C07A4FF40D
:1013B00040374FF070684FF0E0490ED109E0D9F89E
:1013C000001020F4407020F0704021F4F811084320
:1013D00007E72068B0F1007F67D13A48006820F045
:1013E000806138480160FFF7FBFB834635480068A1
:1013F00010F0006F0BD0FFF7F3FBA0EB0B0064289D
:1014000000F2D6812F48006810F0006FF3D12078E9
:1014100010F0010F2C482DD0616B59BB016897FA71
:10142000A7F201F44031B2FA82F2D140026898FA90
:10143000A8F39AFAAAFC02F07062B3FA83F3BCFA3A
:101440008CFCDA40636803FA0CF397FAA7FCBCFA49
:101450008CFC01FA0CF1194398FAA8F3B3FA83F360
:101460009A4099FAA9F30A43A168B3FA83F3994021
:1014700011430160216811F4002F03D0E26BB2F533
:10148000801F06D011F4801F49D0216CB1F5800F68
:1014900045D1016897FAA7F201F44031B2FA82F21D
:1014A000D140026802F0E04210E0A5E008380240B6
:1014B0008C380240403802400070004070380240D2
:1014C00090380240003802408438024099FAA9F36B
:1014D0009AFAAAFCB3FA83F3BCFA8CFCDA4063688C
:1014E00003FA0CF397FAA7FCBCFA8CFC01FA0CF196
:1014F00098FAA8FC1943E368BCFA8CFC03FA0CF3D5
:10150000194399FAA9F3B3FA83F39A40114301609E
:101510003168626A21F01F01521E11433160216857
:1015200011F0807F2ED0016898FAA8F201F0706166
:10153000B2FA82F2D140026899FAA9F39AFAAAFCA7
:1015400002F0E042B3FA83F3BCFA8CFCDA40636841
:1015500097FAA7FBBBFA8BFB03FA0CF3D4F810C085
:101560000CFA0BFC43EA0C0398FAA8FCBCFA8CFCBE
:1015700001FA0CF1194399FAA9F3B3FA83F39A40EB
:1015800011430160216811F0007F1CD09AFAAAF281
:10159000616897FAA7F3B2FA82F2B3FA83F301FA19
:1015A00002F22169994098FAA8F31143E268B3FA6C
:1015B00083F39A4099FAA9F31143A268B3FA83F32B
:1015C0009A40114301607F48006840F080617D4887
:1015D0000160FFF705FB83467A48006810F0006F52
:1015E0000AD1FFF7FDFAA0EB0B0064287DD87548FF
:1015F000006810F0006FF4D0002D77D0714D28688E
:1016000020F080502860FFF7EBFA8346286810F03E
:10161000005F09D0FFF7E4FAA0EB0B00642864D860
:10162000286810F0005FF5D12068DFF89CC110F445
:10163000002F01D0E16B21B110F4801F38D0206C55
:10164000B0BBDCF8000097FAA7F100F44030B1FA23
:1016500081F1C840DCF8001099FAA9F29AFAAAF3CD
:1016600001F0E041B2FA82F2B3FA83F3D140626949
:101670009A4097FAA7F3B3FA83F3984098FAA8F33D
:101680001043A269B3FA83F39A40104399FAA9F27E
:10169000B2FA82F291400843CCF8000030686FF053
:1016A000FF02A16A20F4F85002EB012108433060E8
:1016B000206810F4001F34D0E06FB0F1006F30D11B
:1016C000DCF8000098FAA8F100F07060B1FA81F13E
:1016D000C840DCF8001099FAA9F29AFAAAF301F0CE
:1016E000E041B2FA82F2D14001E061E067E0626974
:1016F000B3FA83F397FAA7FB9A40236ABBFA8BFBF2
:1017000003FA0BF31A4398FAA8F3B3FA83F3984059
:10171000104399FAA9F2B2FA82F291400843CCF848
:101720000000207810F0080F32D0DCF8000098FAA2
:10173000A8F100F07060B1FA81F1C840DCF8001047
:1017400097FAA7F29AFAAAF301F44031B2FA82F2B8
:10175000B3FA83F3D14062699A4097FAA7F3B3FAD8
:1017600083F39940114398FAA8F2B2FA82F29040BA
:1017700099FAA9F20843E169B2FA82F2914008436A
:10178000CCF800003068E16A20F440300843306053
:10179000286840F080502860FFF722FA0446286845
:1017A00010F0005F0BD1FFF71BFA001B642802D971
:1017B0000320BDE8F88F286810F0005FF3D0002008
:1017C000BDE8F88F00380240883802402DE9F04724
:1017D000DFF8688104460D46D8F8000000F00F00DD
:1017E000A8420CD2D8F8000020F00F002843C8F817
:1017F0000000D8F8000000F00F00A84270D1207857
:101800004F4F10F0020F05D03868A16820F0F000AB
:1018100008433860207810F0010F4ED060684949C5
:10182000012820D00968022822D011F0020F57D0D9
:10183000396821F0030108433860FFF7D1F9064603
:10184000606841F28839012816D00228386800F013
:101850000C0021D0F8B1FFF7C3F9801B484528D907
:101860000320BDE8F087096811F4003FE0D137E0BC
:1018700011F0007FDCD133E0386800F00C00042860
:101880001BD0FFF7ADF9801B4845E9D8386800F058
:101890000C000428F5D110E008280ED0FFF7A0F9BD
:1018A000801B4845DCD8386800F00C000828F5D1CA
:1018B00003E0386810F00C0FCDD1D8F8000000F02C
:1018C0000F00A8420FD9D8F8000020F00F002843DD
:1018D000C8F80000D8F8000000F00F00A84202D0BD
:1018E0000120BDE8F087207810F0040F05D038689B
:1018F000E16820F4E05008433860207810F0080FC9
:1019000006D03868216920F4604040EAC1003860A0
:1019100000F04EF83968F02292FAA2F201F0F001DC
:10192000B2FA82F2D140084A515CC84007490860C7
:101930000F20FFF763F90020BDE8F087003C02406C
:101940000838024000380240AAAF000824000220F4
:1019500008480949006809684FF4E05292FAA2F277
:1019600001F4E051B2FA82F2D140044A515CC8401D
:10197000704700002400022008380240BAAF000877
:1019800008480949006809684FF4604292FAA2F2D7
:1019900001F46041B2FA82F2D140044A515CC8407D
:1019A000704700002400022008380240BAAF000847
:1019B0002148006810F00C01204808BF7047DFF88C
:1019C00080C0042904BF60467047082918BF7047CB
:1019D0004DF8044D1B4A1168136801F03F0113F4E0
:1019E000800F47F6C0730BD0BCFBF1F011681940B3
:1019F00093FAA3F3B3FA83F3D94000FB01F00AE0B2
:101A0000B0FBF1F01168194093FAA3F3B3FA83F332
:101A1000D94000FB01F011684FF440325DF8044BEF
:101A200092FAA2F201F44031B2FA82F2D140491C9A
:101A30004900B0FBF1F07047083802400024F40080
:101A400040787D01043802402DE9F84FDFF8A88383
:101A500004460078A8F1040710F0010FA7F104056F
:101A60005AD0D8F8000000F00C00042809D0D8F8AB
:101A7000000000F00C0008280CD1386810F4800F2A
:101A800008D0286810F4003F46D06068002800F0B5
:101A9000AF8141E06068B0F5803F04BF286840F442
:101AA00080300AD010B1B0F5A02F11D0286820F4F2
:101AB00080302860286820F4802028606068D0B1D9
:101AC000FFF78EF80646286810F4003F08D023E0A0
:101AD000286840F480202860286840F48030ECE7D3
:101AE000FFF77EF8801B642800F22581286810F437
:101AF000003FF5D010E0FFF773F80646286810F4B1
:101B0000003F09D0FFF76CF8801B642800F21381B6
:101B1000286810F4003FF5D1207810F0020F50D063
:101B2000D8F800004FF0F80910F00C0F18D0D8F8D2
:101B3000000000F00C00082804BF386810F4800F83
:101B40000ED0E0680028286828D040F00100286006
:101B5000FFF746F80646286810F0020F09D011E09A
:101B6000286810F0020F1CBFE06801280AD000F0BE
:101B70003FB9FFF735F8801B02287DD8286810F0A0
:101B8000020FF6D0286899FAA9F22169B2FA82F216
:101B900020F0F80091400843286012E020F0010096
:101BA0002860FFF71DF80646286810F0020F08D0DD
:101BB000FFF716F8801B02285ED8286810F0020F85
:101BC000F6D1207810F0080F33D0DFF8309260693A
:101BD0000028D9F8000016D040F00100C9F8000034
:101BE000FEF7FEFF0646D9F8000010F0020F20D1E4
:101BF000FEF7F6FF801B02283ED8D9F8000010F04F
:101C0000020FF5D015E020F00100C9F80000FEF742
:101C1000E7FF0646D9F8000010F0020F09D0FEF7E2
:101C2000DFFF801B022827D8D9F8000010F0020F30
:101C3000F5D1207810F0040F63D07148016841F0AD
:101C40008051016000686F4E00F080500090306855
:101C500040F480703060FEF7C3FF8146306810F4B6
:101C6000807F0BD1FEF7BCFFA0EB0900642862D88F
:101C7000306810F4807F00E05DE0F3D0A068624E31
:101C8000012804BF306840F0010009D008B10528E0
:101C900013D0306820F001003060306820F004007C
:101CA0003060A06841F2883AD0B1FEF799FF8146D2
:101CB000306810F0020F08D023E0306840F00400D4
:101CC0003060306840F00100EAE7FEF789FFA0EBE2
:101CD000090050452FD8306810F0020FF5D010E001
:101CE000FEF77EFF8146306810F0020F09D0FEF744
:101CF00077FFA0EB090050451DD8306810F0020FA7
:101D0000F5D1A069E8B3D8F8001001F00C0108295A
:101D10006ED00228286820F0807028600ED0FEF770
:101D20005FFF0446286810F0007F5ED0FEF758FF82
:101D3000001B022855D90320BDE8F88FFEF750FF9D
:101D40000646286810F0007F08D0FEF749FF801B88
:101D50000228F0D8286810F0007FF6D1D4E90701F6
:101D600047F6C0724FF0FF3392FAA2F20843616A5D
:101D7000B2FA82F29140A26A03EB52024FF440336E
:101D800000E032E093FAA3F3B3FA83F39A401143ED
:101D90004FF070620843E16A92FAA2F2B2FA82F25C
:101DA00091404FF0E0420843216B92FAA2F2B2FA5E
:101DB00082F2914008433860286840F080702860C3
:101DC000FEF70EFF0446286810F0007F0DD1FEF7E5
:101DD00007FF001B0228AED8286810F0007FF6D05D
:101DE00003E0286810F0007FA0D10020BDE8F88F44
:101DF0000120BDE8F88F0000083802407438024026
:101E0000403802400070004070380240002804BF93
:101E10000120704770B5044690F82C000D4628B993
:101E2000002084F82D00204600F012F8022084F8EB
:101E30002C002068211DFEF7A9FCD4E900022946E8
:101E4000FEF702FD012084F82C00002070BD000088
:101E500030484DF804ED87B0016841F001010160A0
:101E6000006800F0010005902B48016841F0040172
:101E70000160016801F004010591016841F0080169
:101E80000160016801F008010591016841F010014D
:101E90000160016801F010010591016841F0200125
:101EA0000160016801F020010591016841F04001E5
:101EB00001600068694600F0400005900D20009028
:101EC0000220019001200290032003900C20049036
:101ED0001248FEF763FD4CF203700090104869460B
:101EE000FEF75CFD4FF6837000900E486946FEF7E2
:101EF00055FD4FF63F0000900B486946FEF74EFD3A
:101F000048F23710009009486946FEF747FD07B0D0
:101F10005DF804FB383802403038024000080240C7
:101F2000000C024000100240001402400018024061
:101F300010B5044690F82C00022808BF10BD0220FE
:101F400084F82C002068FEF750FC012084F82C0057
:101F5000002010BD70B5044690F82C000D460228F4
:101F600008BF70BD022084F82C002068FEF743FCF7
:101F7000286802280CBF0520012084F82C000020CE
:101F800070BD002804BF0120704770B5044690F86A
:101F9000450015460E4628B9002084F84400204626
:101FA00000F01AF8206804F10801FEF77FFBA26830
:101FB00031462068FEF7B8FBE36A2946D4E90102FE
:101FC000FEF750FBA168206850F8212042F0010282
:101FD00040F82120002070BD1A484DF804ED87B06C
:101FE000016841F001010160006800F00100059006
:101FF0001548016841F008010160016801F008011D
:102000000591016841F0100101600068694600F027
:10201000100005904EF2B370009002200190012054
:102020000290032003900C2004900848FEF7B6FCB1
:102030004FF68070009006486946FEF7AFFC07B087
:102040005DF804FB3838024030380240000C024092
:10205000001002404FF0E021042808690CBF40F056
:10206000040020F00400086170470000401EB0F139
:10207000807F24BF012070474FF0E0214861F020AD
:10208000044A82F8140D00208861072008610020AE
:10209000704700000FE000E0704770472DE9F04105
:1020A0000168A1F18040B0F5803018BFBDE8F08133
:1020B0004FF480712D48FEF789FD2D4E00252D4CE3
:1020C0004FF6F57770B13068016A394001623068C7
:1020D000016A41F00201016230684562207840F0F7
:1020E00010003FE02248002100F030F980B260800B
:1020F00031680A6A3A400A6231680A6A0A622178DB
:1021000011F0100F2BD011F0800F1ED0A0F22D1265
:10211000B2F5F97F9CBF6068400008D9A0F27952FF
:10212000B2F5C77F05D86068400040F001006060EC
:1021300015E0A0F69900B0F5C77F10D86078401C74
:10214000607001F0F000207009E0A0F5805069385F
:10215000B0F5F97F03D841F08000207065702078D9
:1021600020F010002070BDE8F08100000000024067
:102170007C0402204C00022070B50446006801690E
:102180004FF0000511F0020F1CBFC16811F0020FE3
:1021900013D06FF002010161012020762068806970
:1021A00010F0030F204602D0FFF778FF04E000F0A4
:1021B000A6F8204600F0A4F825762068016911F001
:1021C000040F1CBFC16811F0040F13D06FF004019D
:1021D0000161022020762068806910F4407F20464B
:1021E00002D0FFF75BFF04E000F089F8204600F022
:1021F00087F825762068016911F0080F1CBFC168B7
:1022000011F0080F13D06FF008010161042020764F
:102210002068C06910F0030F204602D0FFF73EFF90
:1022200004E000F06CF8204600F06AF8257620689B
:10223000016911F0100F1CBFC16811F0100F13D00D
:102240006FF010010161082020762068C06910F449
:10225000407F204602D0FFF721FF04E000F04FF856
:10226000204600F04DF825762068016911F0010F35
:102270001CBFC16811F0010F05D06FF001010161B1
:10228000204600F03FF8206801696FF0800511F0EA
:10229000800F1CBFC16811F0800F03D0056120467C
:1022A000FFF7FAFE2068016911F4807F1CBFC16846
:1022B00011F0800F03D005612046FFF7EDFE206886
:1022C000016911F0400F1CBFC16811F0400F05D02B
:1022D0006FF040010161204600F05AF82068016962
:1022E00011F0200F1ABFC16811F0200F70BD6FF000
:1022F000200101612046BDE87040FFF7CEBE704767
:10230000704700000068A0F18041B1F5803118BF2E
:1023100070470D49087810F0800F08BF704720F013
:102320001000087010F00F0F04BF40F0400008705C
:10233000C0B200F00F020E2A32BF401C20F0800015
:1023400000F0F000087070474C00022090F8383020
:102350000022012B04BF022070470123002980F8CE
:10236000383004BF01684A6B0DD0042904BF0168EE
:102370008A6B08D0082904BF0168CA6B03D00C29F6
:1023800004BF01680A6C002180F8381010467047BD
:102390007047704770B501680446C8690A688B6861
:1023A00010F00F0F4FF0200551D040F2011C13EA3E
:1023B0000C0F7DD010F0010F18BF12F4807F07D0F2
:1023C0004FF0010CC1F820C0E16E41F00101E1665F
:1023D00010F0020F18BF13F0010F08D0D4F800C09E
:1023E0000221CCF82010E16E41F00401E16610F00A
:1023F000040F18BF13F0010F08D0D4F800C0042157
:10240000CCF82010E16E41F00201E16610F0080FF7
:102410000CD002F0200103F00103194306D0236819
:1024200008211962E16E41F00801E166E16E0029C0
:1024300008BF70BD10F0200F1EBF12F0200F204605
:1024400008F087F8E06E10F0080F10D10AE010F0E5
:10245000200F18BF12F0200F39D02046BDE8704081
:1024600008F077B82068806810F0400F29D0206805
:10247000016821F4907101602068816821F00101F8
:10248000816084F86A502068816811F0400F14D090
:10249000816821F040018160606E70B12D49016555
:1024A000606EFEF768FA002808BF70BD606E00E03D
:1024B0000DE0016DBDE8704008472046FFF769FF59
:1024C00070BD2046FFF765FF0020E06670BD10F08C
:1024D000800F18BF12F0800F2CD094F869002128CB
:1024E00018BF70BDB4F8520090B1A068B0F5805F1D
:1024F00004BF20690028E06C14D0411CE16421680D
:1025000000788862B4F85200401EA4F8520070BDF2
:10251000086820F0800008602068016841F04001F0
:10252000016070BD0088C0F308008862E06C801C08
:10253000E064E7E710F0400F14BF12F0400F70BDE9
:1025400020460A6822F040020A6084F8695000F0D0
:10255000FCF870BD3FA50008002804BF01207047AB
:1025600010B5044690F8690028B9002084F8680086
:10257000204600F029F8242084F8690020680168CA
:1025800021F001010160204608F022F8012808BF6F
:1025900010BD606A00281CBF204607F033FF20688A
:1025A000416821F4904141602068816821F02A014E
:1025B00081602068016841F0010101602046BDE8AA
:1025C000104007F08CBF000030B50446006887B0AB
:1025D000A0F18041B1F588311CBF07B030BD1B4868
:1025E000016841F001010160006800F00100059000
:1025F0001748016841F01001016000680121154D84
:1026000000F0100005904FF4007000900220CDE91A
:10261000010103900720694604902846FEF7BEF9A1
:102620002815694600902846FEF7B8F92068016829
:1026300041F0200101602520FEF7A0FC03222520A7
:102640001146FEF7A7FC07B030BD0000303802404D
:1026500044380240000002402DE9F84F044690F84B
:102660006A00984616460D4620286AD1002D12BFF2
:10267000002E0120BDE8F88F94F86800012860D092
:10268000012084F868004FF00009C4F86C90222003
:1026900084F86A00FEF7A4FAA4F858608246A4F809
:1026A0005A60FF21A068B0F5805F05D07F2250B14D
:1026B000B0F1805F0CD012E02069002808BF40F222
:1026C000FF1002D109E02069E8B9A4F85C1006E027
:1026D0002069002818BF3F2015D0A4F85C00B4F88A
:1026E0005C60F7B2B4F85A0000225346401EA4F8CA
:1026F0005A0020212046CDF8008008F0BDF828B10E
:102700000320BDE8F88FA4F85C20E8E7A068B0F5E6
:10271000805F04BF206900282068406A19BF3840E4
:1027200005F8010B304025F8020BB4F85A000028D8
:10273000D8D1202084F86A00002084F86890BDE891
:10274000F88F0220BDE8F88F70477047FEE7000061
:10275000114810B586B0016841F080010160006841
:1027600069460E4C00F0800005903020009001205A
:1027700001900290022003902046FEF70FF90122FB
:1027800020462021FEF727FA012220461021FEF7DD
:1027900022FA06B010BD000030380240001C024092
:1027A0002DE9F041374E07460024306820F44060A0
:1027B0003060306830602546002230461021FEF738
:1027C0000AFA022008F000F9012230461021FEF733
:1027D00002FA60062021040E3046FEF7F7F90028C1
:1027E0001CBF601CC4B2012008F0EEF8681CC5B222
:1027F000082DE1D34FF000024FF0100130460FB327
:10280000FEF7E9F9306820F440603060306840F449
:1028100080603060002230462021FEF7DCF9022083
:1028200008F0D2F8012230461021FEF7D4F9022038
:1028300008F0CAF8002230461021FEF7CCF92046F5
:10284000BDE8F081FEF7C7F9306820F440603060E1
:10285000306840F480603060012230462021FEF76D
:10286000BAF9022008F0B0F8012230461021FEF734
:10287000B2F9022008F0A8F8002230461021FEF735
:10288000AAF9DCE7001C024070B51C4E0546304634
:10289000316821F440613160316841F48061316018
:1028A00000221021FEF797F9002415F0800F05D0C3
:1028B000012230462021FEF78EF904E00022304646
:1028C0002021FEF788F96806050E022008F07CF842
:1028D000012230461021FEF77EF9022008F074F83C
:1028E000002230461021FEF776F9022008F06CF83D
:1028F000601CC4B2082CD8D370BD0000001C02407C
:1029000010B5124C206820F440602060206840F42C
:1029100080602060012220462021FEF75CF9012220
:1029200020461021FEF757F9042008F04DF8002248
:1029300020462021FEF74FF9042008F045F8002238
:102940002046BDE810401021FEF745B9001C0240AA
:1029500010B5124C206820F440602060206840F4DC
:1029600080602060002220461021FEF734F900220A
:1029700020462021FEF72FF9042008F025F8012237
:1029800020461021FEF727F9042008F01DF8012247
:102990002046BDE810402021FEF71DB9001C024072
:1029A00070B5294D0024286820F44060286028680C
:1029B0002860012220212846FEF70DF9012008F0A9
:1029C00003F8012228461021FEF705F9012007F03F
:1029D000FBFF20212846FEF7F9F800282DD0601CC7
:1029E000C4B2FA2C23D9286820F4406028602868F3
:1029F00040F480602860002228461021FEF7EBF8A2
:102A0000002228462021FEF7E6F8042007F0DCFF2C
:102A1000012228461021FEF7DEF8042007F0D4FF3B
:102A2000012228462021FEF7D6F8012070BD202182
:102A30002846FEF7CBF80028D1D1002228461021E5
:102A4000FEF7C9F8002070BD001C02401B4870B59D
:102A500086B0016841F001010160016801F00101E7
:102A60000591016841F004010160016801F0040171
:102A70000591016841F0800101600068032500268E
:102A8000694600F08000059002200124CDE902058E
:102A90000B48CDE90046FDF781FF60036946CDE9AB
:102AA00000060848CDE90245FDF778FF0C200090AC
:102AB00005486946FDF772FF06B070BD3038024028
:102AC0000000024000080240001C02402DE9F041D5
:102AD000344C0126344F0128DFF8D080344D08BF34
:102AE000267001D02078A8B108212846FEF76EF89C
:102AF000B8B104212846FEF769F890B14FF40051AF
:102B00003846FEF763F860B101214046FEF75EF8F3
:102B1000012806D008212846FEF758F801283ED1A2
:102B20002AE00A2007F02AFF00202070082128460A
:102B3000FEF74CF8002804BF0120BDE8F081042115
:102B40002846FEF743F8002804BF0220BDE8F081C4
:102B50004FF400513846FEF739F8002804BF03202F
:102B6000BDE8F08101214046FEF730F8012804BF9E
:102B70000420BDE8F08112E004212846FEF726F883
:102B800001280CD141033846FEF720F8012806D170
:102B900001214046FEF71AF8002808BF26700020E1
:102BA000BDE8F08138000220000802400000024029
:102BB000001C02402DE9F041104E07461048002449
:102BC0003188006820B13846BDE8F04106F06EBF9C
:102BD000708800FB01F50021084606F043FD094915
:102BE00030890880002D86BFB8B20749BDE8F08162
:102BF0000880641CA542FBD8BDE8F081A403022034
:102C00005C040220FEFF0760000008602DE9F05F11
:102C10003D4C3E4DA071296839B106F057FFE88A56
:102C20002080288B6080BDE8F09F37492B252A261D
:102C30004FF0F0084FF4305A45F210594FF4285B2A
:102C40004FF02C0C89884FF42C5E4FF448734FF4EE
:102C5000A0774FF4F072D8B127804945A4F80280DC
:102C600042D1A4F808A0A4F80AB0A4F80CE023808C
:102C70006280A1F5A640103819BFA1F5EC40B0F56F
:102C8000CB70228067800020BDE8F05F06F064BB57
:102C9000A4F800804945678018D1A4F808A0A4F8DA
:102CA0000AB0A4F80CE022806380A1F5A640103899
:102CB00019BFA1F5EC40B0F5CB7027806280A1F57B
:102CC0001840063804BF22806380DCE7A1F5C850B5
:102CD000A4F808C0633801BF6581A68122806380A3
:102CE0001CBF6681A581E0E7A1F5C85063381CBF11
:102CF000A1F51840B0F10600A4F808C06681A581CE
:102D000004BF23806280B4E7A40302205C04022095
:102D10002DE9F04F002682465F1A3546A2EB0008E7
:102D20008946B8F1000F83B0C8BF012007DC0FBF90
:102D300000204FF0FF30C8F10008019000D1019051
:102D4000002FC8BF012006DC0FBF00204FF0FF306E
:102D50007F42009000D10090B845CCBF44463C462D
:102D60004FF0000B601C52BF029003B0BDE8F08F23
:102D70001FFA8AF315481FFA89F1006828B1144830
:102D80000268184606F0B6FE0AE0184606F06AFC2D
:102D900010480189104801800D48104900880880BA
:102DA0004644A6423D4402DD0198361B8244A542BA
:102DB00002DD00982D1B81440BF101001FFA80FBFE
:102DC00002988345D4DD03B0BDE8F08F5C04022097
:102DD0003C000220A4030220FEFF07600000086000
:102DE0002DE9F0411C4615460E4607460B46FFF7F7
:102DF0008FFF3A46234631461046FFF789FF2346A8
:102E00002A4619463846FFF783FF2A4623463146AD
:102E10001046BDE8F041FFF77BBF00002DE9F84FF9
:102E20008B4B1B681BB1BDE8F84F06F063BEDFF8A3
:102E300024A24FEA112CDFF82092CBB25446060AA6
:102E4000BAF8048009F10205A189C7B26489A8F51E
:102E5000A04BBBF5A26B43D0A8F5C85BBBF1630BDD
:102E60007ED0ADF80040BDF80000ADF80000BDF820
:102E70000000A9F80000ADF80060BDF80000ADF852
:102E80000000BDF800002880ADF80070BDF800001B
:102E9000ADF80000BDF800002880ADF80010BDF8C6
:102EA0000000ADF80000BDF80000A9F80000ADF882
:102EB00000C0BDF80000ADF80000BDF8000028809B
:102EC000ADF80030BDF80000ADF80000BDF800001E
:102ED0002880BAF80800A9F800002A80BDE8F88F19
:102EE000ADF80040BDF80000ADF80000BDF80000EE
:102EF000A9F80000ADF80060BDF80000ADF80000D2
:102F0000BDF800002880601CADF80000BDF800008E
:102F1000ADF80000BDF80000A9F80000ADF80070A1
:102F2000BDF80000ADF80000BDF800002880ADF845
:102F30000010BDF80000ADF80000BDF80000A9F8D1
:102F40000000ADF800C0BDF80000ADF80000BDF80D
:102F500000002880481CADF80000BDF8000000E02B
:102F60000FE0ADF80000BDF80000A9F80000ADF8D2
:102F70000030BDF80000ADF80000BDF8000028806A
:102F8000A7E79AF8066026B9BAF80060301A401E22
:102F900080B2ADF80040BDF80040ADF80040BDF88B
:102FA0000040A9F80040040AADF80040BDF80060F8
:102FB000ADF80060BDF800602E80C0B2ADF8000032
:102FC000BDF80060ADF80060BDF800602E80ADF87F
:102FD0000040BDF80040ADF80040BDF800402C8036
:102FE000ADF80000BDF80000ADF80000BDF800002D
:102FF0002880ADF80010BDF80000ADF80000BDF865
:103000000000A9F80000ADF800C0BDF80000ADF860
:103010000000BDF800002880ADF80030BDF80000C9
:10302000ADF80000BDF800002880ADF800C0BDF884
:103030000000ADF80000BDF800002880ADF80030B9
:10304000BDF80000ADF80000BDF80000288040E7A2
:103050005C040220A4030220FEFF07602DE9F04F6C
:1030600095B006F02BFFFE49888018B106F0C0FD30
:1030700006F06BB8FB480068FA4940F002000860AF
:10308000086801264FF02009CDF8389000F00200C2
:103090001390CDE90F6603201190F3480EA9FDF7B8
:1030A0007DFC06F0C3F8F1494FF0204000274FF0B7
:1030B000100807AA0860EE48486008468760CF609D
:1030C0000F61C0F81480300348628000C8620F208E
:1030D00000900020019050200290002006900F20C8
:1030E0000790002008900F20099000200D90DF48E5
:1030F0006946FEF746FF322007F040FCD320ADF8CA
:103100004C00BDF84C00ADF84C00BDF84C00D94C5B
:103110002080A51C2888ADF84C00BDF84C00DFF8D5
:1031200040A32888ADF84C00BDF84C002888ADF8C5
:103130004C00BDF84C004FF6FF7B29880BEA0020BD
:10314000ADF84C10BDF84C100843AAF80400A0F5E7
:103150001341413900F011810420ADF84C00BDF855
:103160004C00ADF84C00BDF84C0020802888ADF82C
:103170004C00BDF84C002888ADF84C00BDF84C0060
:103180002888ADF84C00BDF84C0029880BEA0020D7
:10319000ADF84C10BDF84C100843AAF80400A0F597
:1031A0000541523908BF47F2897000F0E480A0F56C
:1031B000EE41893900F0E180D420ADF84C00BDF833
:1031C0004C00ADF84C00BDF84C0020802888ADF8CC
:1031D0004C00BDF84C002888ADF84C00BDF84C0000
:1031E0002888ADF84C00BDF84C0029880BEA002077
:1031F000ADF84C10BDF84C100843AAF80400A0F537
:10320000A64110397ED0D320ADF84C00BDF84C005B
:10321000ADF84C00BDF84C0020802888ADF84C007B
:10322000BDF84C002888ADF84C00BDF84C0028884B
:10323000ADF84C00BDF84C0029880BEA0020ADF831
:103240004C10BDF84C100843AAF80400A0F5EE415C
:10325000963957D055204FF4704121802880491C61
:10326000AA2021802880491C522021802880491CC6
:10327000082021802880491C0120218028804FF4CB
:103280004540ADF84C00BDF84C00ADF84C00BDF821
:103290004C0020802888ADF84C00BDF84C004CF262
:1032A0000151ADF84C100BEA0020BDF84C10ADF800
:1032B0004C10BDF84C1021802988ADF84C10BDF899
:1032C0004C100843AAF80400052007F057FBBAF891
:1032D0000410A1F5AA4010384FD0D320ADF84C000F
:1032E000BDF84C00ADF84C00BDF84C00208028889B
:1032F000ADF84C00BDF84C002888ADF84C00BDF886
:103300004C0000E039E02888ADF84C00BDF84C00D6
:1033100029880BEA0020ADF84C10BDF84C1008438A
:10332000AAF80400A0F51841063926D0A120ADF86E
:103330004C00BDF84C00ADF84C00BDF84C002080AE
:103340002888ADF84C00BDF84C002888ADF84C003A
:10335000BDF84C0029880BEA0020ADF84C10BDF8F0
:103360004C100843AAF80400A0F5AE41613908BF2B
:1033700041F6631001D1AAF804003FA0BAF8041086
:10338000FCF7D0FF364811224FF0E00A4FF0290B2E
:103390008088A0F51341413921D0A0F5EE4189394B
:1033A00000F0A683A0F5A6414FF0370E103900F0CB
:1033B0004286A0F5AA41103903F07B86A0F5EE41C4
:1033C000963904F09384A0F51841063904F05C871F
:1033D000A0F5C851633905F09A8405F0B6BECF2038
:1033E000ADF84C00BDF84C00ADF84C00BDF84C00F9
:1033F0002080ADF84C70BDF84C00ADF84C00BDF825
:103400004C002880C121ADF84C10BDF84C00ADF83F
:103410004C00BDF84C0028803020ADF84C00BDF8C1
:103420004C30ADF84C30BDF84C302B80ED23ADF86E
:103430004C30BDF84C30ADF84C30BDF84C302380EA
:103440006423ADF84C30BDF84C30ADF84C30BDF8CD
:103450004C302B800323ADF84C30BDF84C3013E0DA
:10346000A403022030380240000402405803022026
:10347000040100A0FEFF0760204C43442049443A69
:1034800025780D0A00000000ADF84C30BDF84C3036
:103490002B801223ADF84C30BDF84C30ADF84C30D9
:1034A000BDF84C302B808123ADF84C30BDF84C304A
:1034B000ADF84C30BDF84C302B80E823ADF84C30E3
:1034C000BDF84C30ADF84C30BDF84C30238085232E
:1034D000ADF84C30BDF84C30ADF84C30BDF84C3048
:1034E0002B80ADF84C80BDF84C30ADF84C30BDF8B9
:1034F0004C302B807A23ADF84C30BDF84C30ADF811
:103500004C30BDF84C302B80CB23ADF84C30BDF89F
:103510004C30ADF84C30BDF84C3023803923ADF839
:103520004C30BDF84C30ADF84C30BDF84C302B80F1
:103530002C23ADF84C30BDF84C30ADF84C30BDF814
:103540004C302B80ADF84C70BDF84C30ADF84C30A1
:10355000BDF84C302B803423ADF84C30BDF84C30E6
:10356000ADF84C30BDF84C302B800223ADF84C3018
:10357000BDF84C30ADF84C30BDF84C302B80F72303
:10358000ADF84C30BDF84C30ADF84C30BDF84C3097
:103590002380ADF84C90BDF84C30ADF84C30BDF800
:1035A0004C302B80EA23ADF84C30BDF84C30ADF8F0
:1035B0004C30BDF84C302380ADF84C70BDF84C3029
:1035C000ADF84C30BDF84C302B80ADF84C70BDF8E8
:1035D0004C30ADF84C30BDF84C302B80C023ADF8EA
:1035E0004C30BDF84C30ADF84C30BDF84C30238039
:1035F0001B23ADF84C30BDF84C30ADF84C30BDF865
:103600004C302B80ADF84C10BDF84C10ADF84C1080
:10361000BDF84C102180ADF84C60BDF84C10ADF8F1
:103620004C10BDF84C102980C521ADF84C10BDF8E8
:103630004C10ADF84C10BDF84C102180ADF84C008A
:10364000BDF84C10ADF84C10BDF84C102980ADF809
:103650004C00BDF84C00ADF84C00BDF84C00288083
:10366000C720ADF84C00BDF84C00ADF84C00BDF8DB
:103670004C002080B720ADF84C00BDF84C00ADF8F0
:103680004C00BDF84C0028803620ADF84C00BDF849
:103690004C00ADF84C00BDF84C0020804820ADF83F
:1036A0004C00BDF84C00ADF84C00BDF84C00288033
:1036B0003A20ADF84C00BDF84C00ADF84C00BDF818
:1036C0004C0020805520ADF84C00BDF84C00ADF802
:1036D0004C00BDF84C002880B120ADF84C00BDF87E
:1036E0004C00ADF84C00BDF84C002080ADF84C709B
:1036F000BDF84C00ADF84C00BDF84C0028801A20F5
:10370000ADF84C00BDF84C00ADF84C00BDF84C00D5
:103710002880B620ADF84C00BDF84C00ADF84C0048
:10372000BDF84C0020804FF00A0CADF84CC0BDF83D
:103730004C00ADF84C00BDF84C002880A220ADF83C
:103740004C00BDF84C00ADF84C00BDF84C00288092
:10375000F220ADF84C00BDF84C00ADF84C00BDF8BF
:103760004C002080ADF84C70BDF84C00ADF84C001A
:10377000BDF84C0028802620ADF84C00BDF84C0068
:10378000ADF84C00BDF84C002080ADF84C60BDF8A1
:103790004C00ADF84C00BDF84C002880ADF84CA0B2
:1037A000BDF84C00ADF84C00BDF84C0020800F2057
:1037B000ADF84C00BDF84C10ADF84C10BDF84C10F5
:1037C00029802A21ADF84C10BDF84C30ADF84C30B2
:1037D000BDF84C302B802823ADF84C30BDF84C3070
:1037E000ADF84C30BDF84C302B800823ADF84C3090
:1037F000BDF84C90ADF84C90BDF84C90A5F80090F9
:103800004FF00E09ADF84C90BDF84C90ADF84C90CF
:10381000BDF84C90A5F80090ADF84C30BDF84C3098
:10382000ADF84C30BDF84C302B805423ADF84C3003
:10383000BDF84C30ADF84C30BDF84C302B80A9238E
:10384000ADF84C30BDF84C30ADF84C30BDF84C30D4
:103850002B804323ADF84C30BDF84C30ADF84C30E4
:10386000BDF84C302B80ADF84CC0BDF84C30ADF8F5
:103870004C30BDF84C302B80ADF84C00BDF84C30CE
:10388000ADF84C30BDF84C302B80ADF84C70BDF825
:103890004C30ADF84C30BDF84C302B80ADF84C704E
:1038A000BDF84C30ADF84C30BDF84C302B80ADF845
:1038B0004C70BDF84C30ADF84C30BDF84C302B801E
:1038C000ADF84C70BDF84C30ADF84C30BDF84C3014
:1038D0002B80E123ADF84C30BDF84C30ADF84C30C6
:1038E000BDF84C302380ADF84C70BDF84C30ADF8CD
:1038F0004C30BDF84C302B801523ADF84C30BDF862
:103900004C30ADF84C30BDF84C302B801723ADF85F
:103910004C30BDF84C30ADF84C30BDF84C302B80FD
:103920000723ADF84C30BDF84C30ADF84C30BDF845
:103930004C302B80ADF84C20BDF84C30ADF84C30FD
:10394000BDF84C302B800623ADF84C30BDF84C3020
:10395000ADF84C30BDF84C302B804FF02B0CADF84F
:103960004CC0BDF84C30ADF84C30BDF84C302B801D
:103970005623ADF84C30BDF84C30ADF84C30BDF8A6
:103980004C302B803C23ADF84C30BDF84C30ADF8BA
:103990004C30BDF84C302B800523ADF84C30BDF8D1
:1039A0004C30ADF84C30BDF84C302B80ADF84C802D
:1039B000BDF84C30ADF84C30BDF84C302B80ADF834
:1039C0004C00BDF84C30ADF84C30BDF84C302B807D
:1039D0003F23ADF84C30BDF84C80ADF84C80BDF8BD
:1039E0004C80A5F80080ADF84C30BDF84C80ADF8A7
:1039F0004C80BDF84C80A5F80080ADF84C00BDF8B7
:103A00004C00ADF84C00BDF84C002880ADF84CC01F
:103A1000BDF84C00ADF84C00BDF84C002080ADF86E
:103A20004C70BDF84C00ADF84C00BDF84C0028803F
:103A3000ADF84C70BDF84C00ADF84C00BDF84C0032
:103A40002880ADF84C60BDF84C00ADF84C00BDF8D6
:103A50004C002880ADF84C30BDF84C00ADF84C005F
:103A6000BDF84C002880ADF84C10BDF84C00ADF806
:103A70004C00BDF84C002080ADF84C70BDF84C00F7
:103A8000ADF84C00BDF84C002880ADF84C70BDF886
:103A90004C00ADF84C00BDF84C002880ADF84C70DF
:103AA000BDF84C00ADF84C00BDF84C002880EF206C
:103AB000ADF84C00BDF84C00ADF84C00BDF84C0022
:103AC0002880ADF84C20BDF84C00ADF84C00BDF896
:103AD0004C002080782006F051FFADF84CB0BDF8C6
:103AE0004C00ADF84C00BDF84C00208005F02DBB1B
:103AF000ADF84C20BDF84C00ADF84C00BDF84C00C2
:103B00002080782006F03AFF3620ADF84C00BDF852
:103B10004C00ADF84C00BDF84C002080ADF84C7066
:103B2000BDF84C00ADF84C00BDF84C0028803A20A0
:103B3000ADF84C00BDF84C00ADF84C00BDF84C00A1
:103B400020800520ADF84C00BDF84C00ADF84C00CD
:103B5000BDF84C002880B220ADF84C00BDF84C00F8
:103B6000ADF84C00BDF84C0020800C20ADF84C00A6
:103B7000BDF84C10ADF84C10BDF84C102980ADF8D4
:103B80004C00BDF84C10ADF84C10BDF84C1029801D
:103B9000ADF84C70BDF84C10ADF84C10BDF84C10A1
:103BA00029803321ADF84C10BDF84C20ADF84C20E5
:103BB000BDF84C202A80ADF84C10BDF84C10ADF883
:103BC0004C10BDF84C102980B721ADF84C10BDF851
:103BD0004C10ADF84C10BDF84C1021803521ADF8DB
:103BE0004C10BDF84C10ADF84C10BDF84C102980AD
:103BF000BB21ADF84C10BDF84C10ADF84C10BDF821
:103C00004C1021803221ADF84C10BDF84C20ADF89D
:103C10004C20BDF84C202A80C022ADF84C20BDF8C5
:103C20004C20ADF84C20BDF84C202280ADF84C0063
:103C3000BDF84C00ADF84C00BDF84C002880C22007
:103C4000ADF84C00BDF84C00ADF84C00BDF84C0090
:103C50002080ADF84C60BDF84C00ADF84C00BDF8CC
:103C60004C002880C320ADF84C00BDF84C00ADF8E6
:103C70004C00BDF84C002080ADF84C80BDF84C00E5
:103C8000ADF84C00BDF84C002880C420ADF84C00C5
:103C9000BDF84C00ADF84C00BDF84C002080ADF8EC
:103CA0004C90BDF84C00ADF84C00BDF84C0028809D
:103CB000C620ADF84C00BDF84C00ADF84C00BDF886
:103CC0004C0020800F20ADF84C00BDF84C00ADF842
:103CD0004C00BDF84C002880D020ADF84C00BDF859
:103CE0004C20ADF84C20BDF84C202280A422ADF829
:103CF0004C20BDF84C20ADF84C20BDF84C202A805B
:103D0000A122ADF84C20BDF84C20ADF84C20BDF8F8
:103D10004C202A80ADF84CA0BDF84C20ADF84C20CA
:103D2000BDF84C202280ADF84C00BDF84C20ADF819
:103D30004C20BDF84C202A80ADF84C70BDF84C20CA
:103D4000ADF84C20BDF84C202A804FF0020CADF8A5
:103D50004CC0BDF84C20ADF84C20BDF84C202A805A
:103D60000722ADF84C20BDF84C30ADF84C30BDF812
:103D70004C302B800A23ADF84C30BDF84C80ADF8A8
:103D80004C80BDF84C80A5F800804FF02808ADF8B5
:103D90004C80BDF84C90ADF84C90BDF84C90A5F817
:103DA0000090ADF84C10BDF84C10ADF84C10BDF8BB
:103DB0004C1029804421ADF84C10BDF84C10ADF8E2
:103DC0004C10BDF84C1029804221ADF84C10BDF8C4
:103DD0004C10ADF84C10BDF84C1029800621ADF800
:103DE0004C10BDF84C10ADF84C10BDF84C102980AB
:103DF0004FF00E09ADF84C90BDF84C10ADF84C10DA
:103E0000BDF84C1029801221ADF84C10BDF84C10B3
:103E1000ADF84C10BDF84C1029801421ADF84C10B1
:103E2000BDF84C10ADF84C10BDF84C10298017218E
:103E3000ADF84C10BDF84CA0ADF84CA0BDF84CA0AE
:103E4000A5F800A04FF0E10AADF84CA0BDF84CA0D9
:103E5000ADF84CA0BDF84CA0A4F800A0ADF84C0003
:103E6000BDF84C00ADF84C00BDF84C002880ADF812
:103E70004C70BDF84C00ADF84C00BDF84C002880EB
:103E8000ADF84CC0BDF84C00ADF84C00BDF84C008E
:103E90002880ADF84C20BDF84C00ADF84C00BDF8C2
:103EA0004C002880ADF84C30BDF84C00ADF84C000B
:103EB000BDF84C002880ADF84C80BDF84C00ADF842
:103EC0004C00BDF84C0028803120ADF84C00BDF806
:103ED0004C00ADF84C00BDF84C0028805420ADF8E3
:103EE0004C00BDF84C00ADF84C00BDF84C002880EB
:103EF0004720ADF84C00BDF84C00ADF84C00BDF8C3
:103F00004C002880ADF84C90BDF84C00ADF84C004A
:103F1000BDF84C0028801C20ADF84C00BDF84C00CA
:103F2000ADF84C00BDF84C002880ADF84C10BDF841
:103F30004C00ADF84C00BDF84C0028801B20ADF8BB
:103F40004C00BDF84C00ADF84C00BDF84C0028808A
:103F50001E20ADF84C00BDF84C00ADF84C00BDF88B
:103F60004C0028802A20ADF84C00BDF84C00ADF87C
:103F70004C00BDF84C002080ADF84C70BDF84C00F2
:103F8000ADF84C00BDF84C002880ADF84C70BDF881
:103F90004C00ADF84C00BDF84C002880ADF84C70DA
:103FA000BDF84C00ADF84C00BDF84C002880EF2067
:103FB000ADF84C00BDF84C00ADF84C00BDF84C001D
:103FC00028802B20ADF84C00BDF84C00ADF84C001B
:103FD000BDF84C002080ADF84C70BDF84C00ADF839
:103FE0004C00BDF84C002880ADF84C70BDF84C007A
:103FF000ADF84C00BDF84C002880ADF84C60BDF821
:104000004C00ADF84C00BDF84C0028803F20ADF8C6
:104010004C00BDF84C00ADF84C00BDF84C002880B9
:10402000ADF84CB0BDF84C00ADF84C00BDF84C00FC
:10403000208005F08AB8ED20ADF84C00BDF84C00AA
:10404000ADF84C00BDF84C002080ADF84C60BDF8D8
:104050004C00ADF84C00BDF84C002880FE20ADF8B7
:104060004C00BDF84C00ADF84C00BDF84C00288069
:10407000EE20ADF84C00BDF84C00ADF84C00BDF89A
:104080004C002080DE20ADF84C00BDF84C00ADF8AF
:104090004C00BDF84C0028802120ADF84C00BDF844
:1040A0004C10ADF84C10BDF84C102980F121ADF842
:1040B0004C10BDF84C10ADF84C10BDF84C102180E0
:1040C0000121ADF84C10BDF84C10ADF84C10BDF806
:1040D0004C102980DF21ADF84C10BDF84C10ADF824
:1040E0004C10BDF84C1021801021ADF84C10BDF8DB
:1040F0004C10ADF84C10BDF84C102980C421ADF81F
:104100004C10BDF84C10ADF84C10BDF84C1021808F
:104110008F21ADF84C10BDF84C10ADF84C10BDF827
:104120004C102980C621ADF84C10BDF84C10ADF8EC
:104130004C10BDF84C1021803946ADF84C70BDF8DC
:104140004C30ADF84C30BDF84C302B804FF0E20CC9
:10415000ADF84CC0BDF84C30ADF84C30BDF84C302B
:104160002B80ADF84CC0BDF84C30ADF84C30BDF8EC
:104170004C302B80ADF84CC0BDF84C30ADF84C3015
:10418000BDF84C302B80BF23ADF84C30BDF84C301F
:10419000ADF84C30BDF84C302380AA23ADF84C303C
:1041A000BDF84C30ADF84C30BDF84C302B80B0230E
:1041B000ADF84C30BDF84C30ADF84C30BDF84C305B
:1041C00023800D23ADF84C30BDF84C30ADF84C30A9
:1041D000BDF84C302B80ADF84C10BDF84C30ADF82C
:1041E0004C30BDF84C302B800D23ADF84C30BDF871
:1041F0004C30ADF84C30BDF84C302B80ADF84C1045
:10420000BDF84C30ADF84C30BDF84C302B8011224D
:10421000ADF84C20BDF84C20ADF84C20BDF84C203A
:104220002A80ADF84C10BDF84C20ADF84C20BDF8FC
:104230004C202A801922ADF84C20BDF84C20ADF856
:104240004C20BDF84C202A80ADF84C10BDF84C2015
:10425000ADF84C20BDF84C202A80ADF84C00BDF8DC
:104260004C00ADF84C00BDF84C002880ADF84C1067
:10427000BDF84C00ADF84C00BDF84C0028802D2056
:10428000ADF84C00BDF84C00ADF84C00BDF84C004A
:104290002880ADF84C10BDF84C00ADF84C00BDF8CE
:1042A0004C0028803D20ADF84C00BDF84C00ADF826
:1042B0004C00BDF84C002880ADF84C10BDF84C0007
:1042C000ADF84C00BDF84C0028805D20ADF84C00E6
:1042D000BDF84C20ADF84C20BDF84C202A80ADF83C
:1042E0004C10BDF84C20ADF84C20BDF84C202A8075
:1042F000ADF84C00BDF84C00ADF84C00BDF84C00DA
:104300002880ADF84C10BDF84C00ADF84C00BDF85D
:104310004C002880B120ADF84C00BDF84C00ADF841
:104320004C00BDF84C0020808020ADF84C00BDF85A
:104330004C00ADF84C00BDF84C002880ADF84C1096
:10434000BDF84C00ADF84C00BDF84C0028808B2324
:10435000ADF84C30BDF84C00ADF84C00BDF84C0049
:104360002880ADF84C10BDF84C00ADF84C00BDF8FD
:104370004C0028804FF09608ADF84C80BDF84C00FA
:10438000ADF84C00BDF84C002880ADF84C10BDF8DD
:104390004C00ADF84C00BDF84C002880B220ADF8C0
:1043A0004C00BDF84C00ADF84C00BDF84C0020802E
:1043B000ADF84C10BDF84C00ADF84C00BDF84C0009
:1043C0002880ADF84C10BDF84C00ADF84C00BDF89D
:1043D0004C2028462A804FF0020CADF84CC0BDF8A6
:1043E0004C20ADF84C20BDF84C202A80ADF84C1084
:1043F000BDF84C20ADF84C20BDF84C202A80032598
:10440000ADF84C50BDF84C20ADF84C20BDF84C2018
:104410000280ADF84C10BDF84C20ADF84C20BDF832
:104420004C200280B322ADF84C20BDF84C20ADF8F2
:104430004C20BDF84C202280ADF84C10BDF84C202B
:10444000ADF84C20BDF84C200280ADF84C10BDF802
:104450004C20ADF84C20BDF84C200280ADF84C103B
:10446000BDF84C20ADF84C20BDF84C200280ADF8D2
:104470004C10BDF84C20ADF84C20BDF84C2002800B
:10448000ADF84C10BDF84C20ADF84C20BDF84C20D8
:104490000280ADF84C10BDF84C20ADF84C20BDF8B2
:1044A0004C200280ADF84C10BDF84C20ADF84C20EB
:1044B000BDF84C200280ADF84C10BDF84C20ADF892
:1044C0004C20BDF84C200280ADF84C10BDF84C20BB
:1044D000ADF84C20BDF84C200280ADF84C10BDF872
:1044E0004C20ADF84C20BDF84C200280ADF84C10AB
:1044F000BDF84C20ADF84C20BDF84C200280ADF842
:104500004C10BDF84C20ADF84C20BDF84C2002807A
:10451000ADF84C10BDF84C20ADF84C20BDF84C2047
:104520000280ADF84C10BDF84C20ADF84C20BDF821
:104530004C200280ADF84C10BDF84C20ADF84C205A
:10454000BDF84C200280ADF84C10BDF84C20ADF801
:104550004C20BDF84C200280ADF84C10BDF84C202A
:10456000ADF84C20BDF84C200280ADF84C10BDF8E1
:104570004C20ADF84C20BDF84C200280ADF84C101A
:10458000BDF84C20ADF84C20BDF84C200280ADF8B1
:104590004C10BDF84C20ADF84C20BDF84C200280EA
:1045A000ADF84C10BDF84C20ADF84C20BDF84C20B7
:1045B0000280ADF84C10BDF84C20ADF84C20BDF891
:1045C0004C200280ADF84C10BDF84C20ADF84C20CA
:1045D000BDF84C200280ADF84C10BDF84C20ADF871
:1045E0004C20BDF84C200280B422ADF84C20BDF820
:1045F0004C20ADF84C20BDF84C2022808B22ADF829
:104600004C20BDF84C20ADF84C20BDF84C20028069
:10461000ADF84C10BDF84C20ADF84C20BDF84C2046
:104620000280ADF84C80BDF84C20ADF84C20BDF8B0
:104630004C200280ADF84C10BDF84C20ADF84C2059
:10464000BDF84C200280A122ADF84C20BDF84C20D2
:10465000ADF84C20BDF84C200280ADF84C10BDF8F0
:104660004C20ADF84C20BDF84C200280B522ADF8AE
:104670004C20BDF84C20ADF84C20BDF84C202280D9
:10468000ADF84CC0BDF84C20ADF84C20BDF84C2026
:104690000280ADF84C10BDF84C20ADF84C20BDF8B0
:1046A0004C200280ADF84C50BDF84C20ADF84C20A9
:1046B000BDF84C200280ADF84C10BDF84C20ADF890
:1046C0004C20BDF84C2002800422ADF84C20BDF8EF
:1046D0004C30ADF84C30BDF84C300380ADF84C1088
:1046E000BDF84C30ADF84C30BDF84C300380B623EB
:1046F000ADF84C30BDF84C30ADF84C30BDF84C3016
:104700002380ADF84C10BDF84C30ADF84C30BDF8FE
:104710004C300380ADF84C10BDF84C30ADF84C3047
:10472000BDF84C300380B723ADF84C30BDF84C30A9
:10473000ADF84C30BDF84C302380ADF84C10BDF8CE
:104740004C30ADF84C30BDF84C300380ADF84C1017
:10475000BDF84C30ADF84C30BDF84C3003803F23F1
:10476000ADF84C30BDF84C30ADF84C30BDF84C30A5
:104770000380ADF84C10BDF84C30ADF84C30BDF8AE
:104780004C3003805E23ADF84C30BDF84C30ADF8B2
:104790004C30BDF84C300380ADF84C10BDF84C30B7
:1047A000ADF84C30BDF84C3003806423ADF84C308C
:1047B000BDF84C30ADF84C30BDF84C300380ADF84E
:1047C0004C10BDF84C30ADF84C30BDF84C30038087
:1047D0008C23ADF84C30BDF84C30ADF84C30BDF802
:1047E0004C300380ADF84C10BDF84C30ADF84C3077
:1047F000BDF84C300380AC23ADF84C30BDF84C30E4
:10480000ADF84C30BDF84C300380ADF84C10BDF81D
:104810004C30ADF84C30BDF84C300380DC23ADF8A3
:104820004C30BDF84CC0ADF84CC0BDF84CC0A0F841
:1048300000C0ADF84C10BDF84CC0ADF84CC0BDF890
:104840004CC0A0F800C04FF0700CADF84CC0BDF8E3
:104850004CC0ADF84CC0BDF84CC0A0F800C0ADF8DD
:104860004C10BDF84CC0ADF84CC0BDF84CC0A0F821
:1048700000C04FF0900CADF84CC0BDF84CC0ADF886
:104880004CC0BDF84CC0A0F800C0ADF84C10BDF84D
:104890004CC0ADF84CC0BDF84CC0A0F800C04FF003
:1048A000EB0CADF84CC0BDF84CC0ADF84CC0BDF839
:1048B0004CC0A0F800C0ADF84C10BDF84CC0ADF82D
:1048C0004CC0BDF84CC0A0F800C0ADF84C30BDF8ED
:1048D0004C30ADF84C30BDF84C300380ADF84C1086
:1048E000BDF84C30ADF84C30BDF84C300380B823E7
:1048F000ADF84C30BDF84C30ADF84C30BDF84C3014
:104900002380ADF84C10BDF84C30ADF84C30BDF8FC
:104910004C300380ADF84C10BDF84C30ADF84C3045
:10492000BDF84C300380ADF84C10BDF84C30ADF8FC
:104930004C30BDF84C300380ADF84C10BDF84C3015
:10494000ADF84C30BDF84C300380ADF84C10BDF8DC
:104950004C30ADF84C30BDF84C300380ADF84C1005
:10496000BDF84C30ADF84C30BDF84C300380ADF89C
:104970004C10BDF84C30ADF84C30BDF84C300380D5
:10498000ADF84C10BDF84C30ADF84C30BDF84C30A3
:104990000380BA23ADF84C30BDF84C30ADF84C3044
:1049A000BDF84C3023802425ADF84C50BDF84C3078
:1049B000ADF84C30BDF84C300380ADF84C10BDF86C
:1049C0004C30ADF84C30BDF84C300380ADF84C1095
:1049D000BDF84C30ADF84C30BDF84C300380ADF82C
:1049E0004C10BDF84C30ADF84C30BDF84C30038065
:1049F000C123ADF84C30BDF84C30ADF84C30BDF8AB
:104A00004C3023802023ADF84C30BDF84C30ADF84D
:104A10004C30BDF84C300380ADF84C10BDF84C3034
:104A2000ADF84C30BDF84C3003805423ADF84C3019
:104A3000BDF84C30ADF84C30BDF84C300380ADF8CB
:104A40004C10BDF84C30ADF84C30BDF84C30038004
:104A5000FF23ADF84C30BDF84C30ADF84C30BDF80C
:104A60004C300380ADF84C10BDF84C30ADF84C30F4
:104A7000BDF84C300380C223ADF84C30BDF84C304B
:104A8000ADF84C30BDF84C3023800A23ADF84C30E3
:104A9000BDF84C30ADF84C30BDF84C300380ADF86B
:104AA0004C10BDF84C30ADF84C30BDF84C300380A4
:104AB000ADF84C20BDF84C20ADF84C20BDF84C2092
:104AC0000280ADF84C10BDF84C20ADF84C20BDF87C
:104AD0004C200280C322ADF84C20BDF84C20ADF82C
:104AE0004C20BDF84C2022803C23ADF84C30BDF862
:104AF0004C20ADF84C20BDF84C200280ADF84C1095
:104B0000BDF84C20ADF84C20BDF84C2002803A2274
:104B1000ADF84C20BDF84C20ADF84C20BDF84C2031
:104B20000280ADF84C10BDF84C20ADF84C20BDF81B
:104B30004C2002803922ADF84C20BDF84C20ADF855
:104B40004C20BDF84C200280ADF84C10BDF84C2034
:104B5000ADF84C20BDF84C200280ADF84CE0BDF81B
:104B60004C20ADF84C20BDF84C200280ADF84C1024
:104B7000BDF84C20ADF84C20BDF84C200280ADF8BB
:104B80004C30BDF84C20ADF84C20BDF84C200280D4
:104B9000ADF84C10BDF84C20ADF84C20BDF84C20C1
:104BA00002803622ADF84C20BDF84C20ADF84C20E8
:104BB000BDF84C200280ADF84C10BDF84C20ADF88B
:104BC0004C20BDF84C2002803227ADF84C70BDF867
:104BD0004C20ADF84C20BDF84C200280ADF84C10B4
:104BE000BDF84C20ADF84C20BDF84C2002804FF0B1
:104BF0002F0EADF84CE0BDF84C20ADF84C20BDF8C0
:104C00004C200280ADF84C10BDF84C20ADF84C2083
:104C1000BDF84C2002804FF02C09ADF84C90BDF847
:104C20004C20ADF84C20BDF84C200280ADF84C1063
:104C3000BDF84C20ADF84C20BDF84C2002804FF060
:104C40002908ADF84C80BDF84C20ADF84C20BDF8DB
:104C50004C200280ADF84C10BDF84C20ADF84C2033
:104C6000BDF84C2002804FF0260BADF84CB0BDF8DB
:104C70004C20ADF84C20BDF84C200280ADF84C1013
:104C8000BDF84C20ADF84C20BDF84C200280ADF8AA
:104C90004C50BDF84C20ADF84C20BDF84C200280A3
:104CA000ADF84C10BDF84C20ADF84C20BDF84C20B0
:104CB0000280ADF84C50BDF84C20ADF84C20BDF84A
:104CC0004C200280ADF84C10BDF84C20ADF84C20C3
:104CD000BDF84C2002804FF0230CADF84CC0BDF85D
:104CE0004C20ADF84C20BDF84C200280ADF84C10A3
:104CF000BDF84C20ADF84C20BDF84C200280ADF83A
:104D00004C30BDF84C20ADF84C20BDF84C20028052
:104D1000ADF84C10BDF84C20ADF84C20BDF84C203F
:104D200002803622ADF84C20BDF84C20ADF84C2066
:104D3000BDF84C200280ADF84C10BDF84C20ADF809
:104D40004C20BDF84C200280ADF84C70BDF84C20D2
:104D5000ADF84C20BDF84C200280ADF84C10BDF8E9
:104D60004C20ADF84C20BDF84C200280ADF84CE052
:104D7000BDF84C20ADF84C20BDF84C200280ADF8B9
:104D80004C10BDF84C20ADF84C20BDF84C200280F2
:104D9000ADF84C90BDF84C20ADF84C20BDF84C203F
:104DA0000280ADF84C10BDF84C20ADF84C20BDF899
:104DB0004C200280ADF84C80BDF84C20ADF84C2062
:104DC000BDF84C200280ADF84C10BDF84C20ADF879
:104DD0004C20BDF84C200280ADF84CB0BDF84C2002
:104DE000ADF84C20BDF84C200280ADF84C10BDF859
:104DF0004C20ADF84C20BDF84C200280ADF84C5052
:104E0000BDF84C20ADF84C20BDF84C200280ADF828
:104E10004C10BDF84C20ADF84C20BDF84C20028061
:104E2000ADF84C50BDF84C20ADF84C20BDF84C20EE
:104E30000280ADF84C10BDF84C20ADF84C20BDF808
:104E40004C200280ADF84CC0BDF84C20ADF84C2091
:104E5000BDF84C200280ADF84C10BDF84C20ADF8E8
:104E60004C20BDF84C200280C423ADF84C30BDF876
:104E70004C20ADF84C20BDF84C2022806222ADF8C9
:104E80004C20BDF84C20ADF84C20BDF84C200280E1
:104E9000ADF84C10BDF84C20ADF84C20BDF84C20BE
:104EA00002800522ADF84C20BDF84C20ADF84C2016
:104EB000BDF84C200280ADF84C10BDF84C20ADF888
:104EC0004C20BDF84C2002808422ADF84C20BDF867
:104ED0004C20ADF84C20BDF84C200280ADF84C10B1
:104EE000BDF84C20ADF84C20BDF84C200280F022DB
:104EF000ADF84C20BDF84C20ADF84C20BDF84C204E
:104F00000280ADF84C10BDF84C20ADF84C20BDF837
:104F10004C2002801822ADF84C20BDF84C20ADF892
:104F20004C20BDF84C200280ADF84C10BDF84C2050
:104F3000ADF84C20BDF84C200280A422ADF84C20E6
:104F4000BDF84C20ADF84C20BDF84C200280ADF8E7
:104F50004C10BDF84C20ADF84C20BDF84C20028020
:104F60001822ADF84C20BDF84C20ADF84C20BDF80F
:104F70004C200280ADF84C10BDF84C20ADF84C2010
:104F8000BDF84C2002805022ADF84C20BDF84C20DA
:104F9000ADF84C20BDF84C200280ADF84C10BDF8A7
:104FA0004C20ADF84C20BDF84C2002800C22ADF80E
:104FB0004C20BDF84C20ADF84C20BDF84C200280B0
:104FC000ADF84C10BDF84C20ADF84C20BDF84C208D
:104FD00002801722ADF84C20BDF84C20ADF84C20D3
:104FE000BDF84C200280ADF84C10BDF84C20ADF857
:104FF0004C20BDF84C2002809522ADF84C20BDF825
:105000004C20ADF84C20BDF84C200280ADF84C107F
:10501000BDF84C20ADF84C20BDF84C200280F322A6
:10502000ADF84C20BDF84C50ADF84C50BDF84C508C
:105030000580ADF84C10BDF84C50ADF84C50BDF8A3
:105040004C500580E625ADF84C50BDF84C50ADF8FD
:105050004C50BDF84C500580ADF84C10BDF84C508C
:10506000ADF84C50BDF84C500580C525ADF84C50FE
:10507000BDF84C50ADF84C50BDF84C502580322551
:10508000ADF84C50BDF84C50ADF84C50BDF84C50FC
:105090000580ADF84C10BDF84C50ADF84C50BDF843
:1050A0004C5005804425ADF84C50BDF84C50ADF83F
:1050B0004C50BDF84C500580ADF84C10BDF84C502C
:1050C000ADF84C50BDF84C5005806525ADF84C50FE
:1050D000BDF84C50ADF84C50BDF84C500580ADF8C3
:1050E0004C10BDF84C50ADF84C50BDF84C500580FC
:1050F0007625ADF84C50BDF84C50ADF84C50BDF88D
:105100004C500580ADF84C10BDF84C50ADF84C50EB
:10511000BDF84C5005808825ADF84C50BDF84C507A
:10512000ADF84C50BDF84C500580ADF84C10BDF8B2
:105130004C50ADF84C50BDF84C500580C625ADF82C
:105140004C50BDF84C50ADF84C50BDF84C5025803B
:105150002025ADF84C50BDF84C50ADF84C50BDF882
:105160004C500580ADF84C10BDF84C50ADF84C508B
:10517000BDF84C5005801725ADF84C50BDF84C508B
:10518000ADF84C50BDF84C500580ADF84C10BDF852
:105190004C50ADF84C50BDF84C5005800125ADF891
:1051A0004C50BDF84C50ADF84C50BDF84C500580FB
:1051B000ADF84C10BDF84C50ADF84C50BDF84C500B
:1051C0000580C725ADF84C50BDF84C50ADF84C509B
:1051D000BDF84C50A6462580ADF84C10BDF84C509B
:1051E000ADF84C50BDF84C500580ADF84C10BDF8F2
:1051F0004C50ADF84C50BDF84C500580ADF84C10FB
:10520000BDF84C50ADF84C50BDF84C500580ADF891
:105210004C10BDF84C50ADF84C50BDF84C500580CA
:10522000C825ADF84C50BDF84C50ADF84C50BDF809
:105230004C502580ADF84C10BDF84C50ADF84C509A
:10524000BDF84C500580ADF84C10BDF84C50ADF891
:105250004C50BDF84C500580ADF84C10BDF84C508A
:10526000ADF84C50BDF84C500580ADF84C10BDF871
:105270004C50ADF84C50BDF84C500580C925ADF8E8
:105280004C50BDF84C50ADF84C50BDF84C502580FA
:10529000ADF84C10BDF84C50ADF84C50BDF84C502A
:1052A0000580ADF84C10BDF84C50ADF84C50BDF831
:1052B0004C500580ADF84C10BDF84C50ADF84C503A
:1052C000BDF84C500580ADF84C10BDF84C50ADF811
:1052D0004C50BDF84C500580ADF84C10BDF84C500A
:1052E000ADF84C50BDF84C500580ADF84C10BDF8F1
:1052F0004C50ADF84C50BDF84C500580ADF84C10FA
:10530000BDF84C50ADF84C50BDF84C500580ADF890
:105310004C10BDF84C50ADF84C50BDF84C500580C9
:10532000ADF84C10BDF84C50ADF84C50BDF84C5099
:105330000580ADF84C10BDF84C50ADF84C50BDF8A0
:105340004C500580ADF84C10BDF84C50ADF84C50A9
:10535000BDF84C500580ADF84C10BDF84C50ADF880
:105360004C50BDF84C500580ADF84C10BDF84C5079
:10537000ADF84C50BDF84C500580ADF84C10BDF860
:105380004C50ADF84C50BDF84C500580ADF84C1069
:10539000BDF84C50ADF84C50BDF84C500580ADF800
:1053A0004C10BDF84C50ADF84C50BDF84C50058039
:1053B000ADF84CA0BDF84C50ADF84C50BDF84C5079
:1053C00025801624ADF84C40BDF84C40ADF84C405B
:1053D000BDF84C400480ADF84C10BDF84C40ADF821
:1053E0004C40BDF84C4004801C24ADF84C40BDF846
:1053F0004C40ADF84C40BDF84C400480ADF84C102A
:10540000BDF84C40ADF84C40BDF84C400480212420
:10541000ADF84C40BDF84C40ADF84C40BDF84C40A8
:105420000480ADF84C10BDF84C40ADF84C40BDF8D0
:105430004C4004803624ADF84C40BDF84C40ADF8EB
:105440004C40BDF84C400480ADF84C10BDF84C40C9
:10545000ADF84C40BDF84C4004804624ADF84C40BB
:10546000BDF84C40ADF84C40BDF84C400480ADF860
:105470004C10BDF84C40ADF84C40BDF84C40048099
:105480005224ADF84C40BDF84C40ADF84C40BDF84E
:105490004C400480ADF84C10BDF84C40ADF84C4089
:1054A000BDF84C4004806424ADF84C40BDF84C403D
:1054B000ADF84C40BDF84C400480ADF84C10BDF840
:1054C0004C40ADF84C40BDF84C4004807A24ADF817
:1054D0004C40BDF84C40ADF84C40BDF84C40048009
:1054E000ADF84C10BDF84C40ADF84C40BDF84C4008
:1054F00004808B24ADF84C40BDF84C40ADF84C40D6
:10550000BDF84C400480ADF84C10BDF84C40ADF8EF
:105510004C40BDF84C4004809924ADF84C40BDF897
:105520004C50ADF84C50BDF84C5005800025ADF8FE
:105530004C50BDF84C50ADF84C50BDF84C50058067
:10554000A827ADF84C70BDF84C50ADF84C50BDF8E4
:105550004C5005800025ADF84C50BDF84C50ADF8CE
:105560004C50BDF84C500580B925ADF84C50BDF8F5
:105570004C60ADF84C60BDF84C6006800026ADF87C
:105580004C60BDF84C60ADF84C60BDF84C600680D6
:105590009846ADF84C80BDF84C30ADF84C30BDF8B5
:1055A0004C3003800023ADF84C30BDF84C30ADF8E2
:1055B0004C30BDF84C3003804FF0CA09ADF84C9028
:1055C000BDF84C30ADF84C30BDF84C3003800023B2
:1055D000ADF84C30BDF84C30ADF84C30BDF84C3027
:1055E0000380D226ADF84C60BDF84C30ADF84C309D
:1055F000BDF84C3003800023ADF84C30BDF84C3082
:10560000ADF84C30BDF84C300380D923ADF84C30A8
:10561000BDF84C30ADF84C30BDF84C300380002361
:10562000ADF84C30BDF84C30ADF84C30BDF84C30D6
:105630000380ADF84CA0BDF84C30ADF84C30BDF84F
:105640004C3003800023ADF84C30BDF84C30ADF841
:105650004C30BDF84C300380ADF84C20BDF84C30D8
:10566000ADF84C30BDF84C3003800023ADF84C3021
:10567000BDF84C30ADF84C30BDF84C300380E12320
:10568000ADF84C30BDF84C30ADF84C30BDF84CB0F6
:10569000AEF800B04FF0160BADF84CB0BDF84CB002
:1056A000ADF84CB0BDF84CB0A0F800B04FF0000B16
:1056B000ADF84CB0BDF84CB0ADF84CB0BDF84CB046
:1056C000A0F800B04FF01C0BADF84CB0BDF84CB0DA
:1056D000ADF84CB0BDF84CB0A0F800B04FF0000BE6
:1056E000ADF84CB0BDF84CB0ADF84CB0BDF84CB016
:1056F000A0F800B04FF0220BADF84CB0BDF84CB0A4
:10570000ADF84CB0BDF84CB0A0F800B04FF0000BB5
:10571000ADF84CB0BDF84CB0ADF84CB0BDF84CB0E5
:10572000A0F800B04FF0360BADF84CB0BDF84CB05F
:10573000ADF84CB0BDF84CB0A0F800B04FF0000B85
:10574000ADF84CB0BDF84CB0ADF84CB0BDF84CB0B5
:10575000A0F800B04FF0450BADF84CB0BDF84CB020
:10576000ADF84CB0BDF84CB0A0F800B04FF0000B55
:10577000ADF84CB0BDF84CB0ADF84CB0BDF84CB085
:10578000A0F800B04FF0520BADF84CB0BDF84CB0E3
:10579000ADF84CB0BDF84CB0A0F800B04FF0000B25
:1057A000ADF84CB0BDF84CB0ADF84CB0BDF84CB055
:1057B000A0F800B04FF0640BADF84CB0BDF84CB0A1
:1057C000ADF84CB0BDF84CB0A0F800B04FF0000BF5
:1057D000ADF84CB0BDF84CB0ADF84CB0BDF84CB025
:1057E000A0F800B04FF07A0BADF84CB0BDF84CB05B
:1057F000ADF84CB0BDF84CB0A0F800B04FF0000BC5
:10580000ADF84CB0BDF84CB0ADF84CB0BDF84CB0F4
:10581000A0F800B04FF08B0BADF84CB0BDF84CB019
:10582000ADF84CB0BDF84CB0A0F800B04FF0000B94
:10583000ADF84CB0BDF84CB0ADF84CB0BDF84CB0C4
:10584000A0F800B0ADF84C40BDF84C40ADF84C406D
:10585000BDF84C4004800024ADF84C40BDF84C40ED
:10586000ADF84C40BDF84C400480ADF84C70BDF82C
:105870004C40ADF84C40BDF84C4004800024ADF8DD
:105880004C40BDF84C40ADF84C40BDF84C40048055
:10589000ADF84C50BDF84C40ADF84C40BDF84C4014
:1058A00004800024ADF84C40BDF84C40ADF84C40AD
:1058B000BDF84C400480ADF84C80BDF84C40ADF8CC
:1058C0004C40BDF84C4004800024ADF84C40BDF87D
:1058D0004C40ADF84C40BDF84C400480ADF84C90C5
:1058E000BDF84C40ADF84C40BDF84C400480ADF8DC
:1058F0004C10BDF84C40ADF84C40BDF84C40048015
:10590000ADF84C60BDF84C40ADF84C40BDF84C4093
:105910000480ADF84C10BDF84C40ADF84C40BDF8DB
:105920004C400480D824ADF84C40BDF84C40ADF854
:105930004C40BDF84C400480ADF84C10BDF84C40D4
:10594000ADF84C40BDF84C400480ADF84CA0BDF81B
:105950004C40ADF84C40BDF84C400480ADF84C10C4
:10596000BDF84C40ADF84C40BDF84C400480ADF85B
:105970004C20BDF84C20ADF84C20BDF84C200280E6
:10598000ADF84C10BDF84C20ADF84C20BDF84C20C3
:105990000280E222ADF84C20BDF84C20ADF84C203E
:1059A000BDF84C40FE4A14800522ADF84C20BDF8ED
:1059B0004C20ADF84C20BDF84C200280ADF84C10C6
:1059C000BDF84C20ADF84C20BDF84C2002800B22D5
:1059D000ADF84C20BDF84C20ADF84C20BDF84C2063
:1059E0000280ADF84C10BDF84C20ADF84C20BDF84D
:1059F0004C2002801B22ADF84C20BDF84C20ADF8A5
:105A00004C20BDF84C200280ADF84C10BDF84C2065
:105A1000ADF84C20BDF84C2002803422ADF84C206B
:105A2000BDF84C20ADF84C20BDF84C200280ADF8FC
:105A30004C10BDF84C20ADF84C20BDF84C20028035
:105A40004422ADF84C20BDF84C30ADF84C30BDF8D8
:105A50004C300380ADF84C10BDF84C30ADF84C30F4
:105A6000BDF84C3003804F23ADF84C30BDF84C30BE
:105A7000ADF84C30BDF84C300380ADF84C10BDF89B
:105A80004C30ADF84C30BDF84C3003806123ADF89C
:105A90004C30BDF84C30ADF84C30BDF84C30038084
:105AA000ADF84C10BDF84C30ADF84C30BDF84C3072
:105AB00003807923ADF84C30BDF84C30ADF84C3054
:105AC000BDF84C300380ADF84C10BDF84C30ADF84B
:105AD0004C30BDF84C3003808824ADF84C40BDF804
